{
  "contractName": "SmartDiffieHellman",
  "abi": [
    {
      "constant": true,
      "inputs": [],
      "name": "B",
      "outputs": [
        {
          "internalType": "uint256",
          "name": "",
          "type": "uint256"
        }
      ],
      "payable": false,
      "stateMutability": "view",
      "type": "function"
    },
    {
      "constant": true,
      "inputs": [],
      "name": "G",
      "outputs": [
        {
          "internalType": "uint256",
          "name": "",
          "type": "uint256"
        }
      ],
      "payable": false,
      "stateMutability": "view",
      "type": "function"
    },
    {
      "constant": true,
      "inputs": [],
      "name": "P",
      "outputs": [
        {
          "internalType": "uint256",
          "name": "",
          "type": "uint256"
        }
      ],
      "payable": false,
      "stateMutability": "view",
      "type": "function"
    },
    {
      "constant": true,
      "inputs": [],
      "name": "jsCalcSecret",
      "outputs": [
        {
          "internalType": "string",
          "name": "",
          "type": "string"
        }
      ],
      "payable": false,
      "stateMutability": "view",
      "type": "function"
    },
    {
      "constant": true,
      "inputs": [],
      "name": "jsGetRandom",
      "outputs": [
        {
          "internalType": "string",
          "name": "",
          "type": "string"
        }
      ],
      "payable": false,
      "stateMutability": "view",
      "type": "function"
    },
    {
      "constant": true,
      "inputs": [],
      "name": "jsInitTransmit",
      "outputs": [
        {
          "internalType": "string",
          "name": "",
          "type": "string"
        }
      ],
      "payable": false,
      "stateMutability": "view",
      "type": "function"
    },
    {
      "constant": true,
      "inputs": [
        {
          "internalType": "uint256[]",
          "name": "_seed",
          "type": "uint256[]"
        }
      ],
      "name": "generateA",
      "outputs": [
        {
          "internalType": "uint256",
          "name": "_a",
          "type": "uint256"
        },
        {
          "internalType": "uint256",
          "name": "_A",
          "type": "uint256"
        }
      ],
      "payable": false,
      "stateMutability": "view",
      "type": "function"
    },
    {
      "constant": false,
      "inputs": [
        {
          "internalType": "contract SmartDiffieHellman",
          "name": "_other",
          "type": "address"
        },
        {
          "internalType": "uint256",
          "name": "_A",
          "type": "uint256"
        }
      ],
      "name": "transmitA",
      "outputs": [],
      "payable": false,
      "stateMutability": "nonpayable",
      "type": "function"
    },
    {
      "constant": true,
      "inputs": [
        {
          "internalType": "uint256",
          "name": "_a",
          "type": "uint256"
        },
        {
          "internalType": "uint256",
          "name": "_B",
          "type": "uint256"
        }
      ],
      "name": "generateAExtB",
      "outputs": [
        {
          "internalType": "uint256",
          "name": "_AB",
          "type": "uint256"
        }
      ],
      "payable": false,
      "stateMutability": "view",
      "type": "function"
    },
    {
      "constant": true,
      "inputs": [
        {
          "internalType": "uint256",
          "name": "_a",
          "type": "uint256"
        }
      ],
      "name": "generateAB",
      "outputs": [
        {
          "internalType": "uint256",
          "name": "_AB",
          "type": "uint256"
        }
      ],
      "payable": false,
      "stateMutability": "view",
      "type": "function"
    },
    {
      "constant": false,
      "inputs": [
        {
          "internalType": "uint256",
          "name": "_B",
          "type": "uint256"
        }
      ],
      "name": "setB",
      "outputs": [],
      "payable": false,
      "stateMutability": "nonpayable",
      "type": "function"
    },
    {
      "constant": false,
      "inputs": [],
      "name": "stop",
      "outputs": [],
      "payable": false,
      "stateMutability": "nonpayable",
      "type": "function"
    }
  ],
  "bytecode": "0x60806040527ff3ec75cc015a7f458c242e37c292eef96c40cfb670ed8cff3bba27ee3301205b600055600260015560405180610100016040528060d5815260200162000f2260d59139600490805190602001906200005f929190620000d8565b5060405180606001604052806031815260200162000ef1603191396005908051906020019062000091929190620000d8565b506040518060a001604052806064815260200162000ff76064913960069080519060200190620000c3929190620000d8565b50348015620000d157600080fd5b5062000187565b828054600181600116156101000203166002900490600052602060002090601f016020900481019282601f106200011b57805160ff19168380011785556200014c565b828001600101855582156200014c579182015b828111156200014b5782518255916020019190600101906200012e565b5b5090506200015b91906200015f565b5090565b6200018491905b808211156200018057600081600090555060010162000166565b5090565b90565b610d5a80620001976000396000f3fe608060405234801561001057600080fd5b50600436106100b45760003560e01c80635fca164b116100715780635fca164b146102225780636fecb623146102a55780638482e01c146102c35780638b8fbd9214610396578063a14efa31146103b4578063a34f8c9d14610437576100b4565b806307da68f5146100b957806309cdcf9b146100c35780632e7e3643146100f157806332e7c5bf146101335780633f74a95e1461015157806352fef9bb146101d4575b600080fd5b6100c1610483565b005b6100ef600480360360208110156100d957600080fd5b810190808035906020019092919050505061049c565b005b61011d6004803603602081101561010757600080fd5b81019080803590602001909291905050506104e7565b6040518082815260200191505060405180910390f35b61013b61060c565b6040518082815260200191505060405180910390f35b610159610612565b6040518080602001828103825283818151815260200191508051906020019080838360005b8381101561019957808201518184015260208101905061017e565b50505050905090810190601f1680156101c65780820380516001836020036101000a031916815260200191505b509250505060405180910390f35b610220600480360360408110156101ea57600080fd5b81019080803573ffffffffffffffffffffffffffffffffffffffff169060200190929190803590602001909291905050506106b0565b005b61022a610993565b6040518080602001828103825283818151815260200191508051906020019080838360005b8381101561026a57808201518184015260208101905061024f565b50505050905090810190601f1680156102975780820380516001836020036101000a031916815260200191505b509250505060405180910390f35b6102ad610a31565b6040518082815260200191505060405180910390f35b610379600480360360208110156102d957600080fd5b81019080803590602001906401000000008111156102f657600080fd5b82018360208201111561030857600080fd5b8035906020019184602083028401116401000000008311171561032a57600080fd5b919080806020026020016040519081016040528093929190818152602001838360200280828437600081840152601f19601f820116905080830192505050505050509192919290505050610a37565b604051808381526020018281526020019250505060405180910390f35b61039e610acc565b6040518082815260200191505060405180910390f35b6103bc610ad2565b6040518080602001828103825283818151815260200191508051906020019080838360005b838110156103fc5780820151818401526020810190506103e1565b50505050905090810190601f1680156104295780820380516001836020036101000a031916815260200191505b509250505060405180910390f35b61046d6004803603604081101561044d57600080fd5b810190808035906020019092919080359060200190929190505050610b70565b6040518082815260200191505060405180910390f35b3373ffffffffffffffffffffffffffffffffffffffff16ff5b33600360006101000a81548173ffffffffffffffffffffffffffffffffffffffff021916908373ffffffffffffffffffffffffffffffffffffffff1602179055508060028190555050565b60008073ffffffffffffffffffffffffffffffffffffffff16600360009054906101000a900473ffffffffffffffffffffffffffffffffffffffff1673ffffffffffffffffffffffffffffffffffffffff161415610590576040517f08c379a000000000000000000000000000000000000000000000000000000000815260040180806020018281038252602d815260200180610cc2602d913960400191505060405180910390fd5b600060025414156105ec576040517f08c379a0000000000000000000000000000000000000000000000000000000008152600401808060200182810382526037815260200180610cef6037913960400191505060405180910390fd5b61060582600054600254610b919092919063ffffffff16565b9050919050565b60025481565b60058054600181600116156101000203166002900480601f0160208091040260200160405190810160405280929190818152602001828054600181600116156101000203166002900480156106a85780601f1061067d576101008083540402835291602001916106a8565b820191906000526020600020905b81548152906001019060200180831161068b57829003601f168201915b505050505081565b600073ffffffffffffffffffffffffffffffffffffffff168273ffffffffffffffffffffffffffffffffffffffff161415610736576040517f08c379a000000000000000000000000000000000000000000000000000000000815260040180806020018281038252602d815260200180610cc2602d913960400191505060405180910390fd5b8173ffffffffffffffffffffffffffffffffffffffff16638b8fbd926040518163ffffffff1660e01b815260040160206040518083038186803b15801561077c57600080fd5b505afa158015610790573d6000803e3d6000fd5b505050506040513d60208110156107a657600080fd5b81019080805190602001909291905050506000541461082d576040517f08c379a00000000000000000000000000000000000000000000000000000000081526004018080602001828103825260138152602001807f5072696d6520697320646966666572656e742e0000000000000000000000000081525060200191505060405180910390fd5b8173ffffffffffffffffffffffffffffffffffffffff16636fecb6236040518163ffffffff1660e01b815260040160206040518083038186803b15801561087357600080fd5b505afa158015610887573d6000803e3d6000fd5b505050506040513d602081101561089d57600080fd5b810190808051906020019092919050505060015414610924576040517f08c379a00000000000000000000000000000000000000000000000000000000081526004018080602001828103825260128152602001807f526f6f7420697320646966666572656e742e000000000000000000000000000081525060200191505060405180910390fd5b8173ffffffffffffffffffffffffffffffffffffffff166309cdcf9b826040518263ffffffff1660e01b815260040180828152602001915050600060405180830381600087803b15801561097757600080fd5b505af115801561098b573d6000803e3d6000fd5b505050505050565b60048054600181600116156101000203166002900480601f016020809104026020016040519081016040528092919081815260200182805460018160011615610100020316600290048015610a295780601f106109fe57610100808354040283529160200191610a29565b820191906000526020600020905b815481529060010190602001808311610a0c57829003601f168201915b505050505081565b60015481565b600080600080541415610a4657fe5b60006001541415610a5357fe5b8260405160200180828051906020019060200280838360005b83811015610a87578082015181840152602081019050610a6c565b505050509050019150506040516020818303038152906040528051906020012060001c9150610ac582600054600154610b919092919063ffffffff16565b9050915091565b60005481565b60068054600181600116156101000203166002900480601f016020809104026020016040519081016040528092919081815260200182805460018160011615610100020316600290048015610b685780601f10610b3d57610100808354040283529160200191610b68565b820191906000526020600020905b815481529060010190602001808311610b4b57829003601f168201915b505050505081565b6000610b898360005484610b919092919063ffffffff16565b905092915050565b600080610b9c610c7d565b610ba4610c9f565b602081600060068110610bb357fe5b602002018181525050602081600160068110610bcb57fe5b602002018181525050602081600260068110610be357fe5b6020020181815250508681600360068110610bfa57fe5b6020020181815250508581600460068110610c1157fe5b6020020181815250508481600560068110610c2857fe5b60200201818152505060208260c08360056107d05a03fa92508260008114610c4f57610c54565b600080fd5b5082610c5f57600080fd5b81600060018110610c6c57fe5b602002015193505050509392505050565b6040518060200160405280600190602082028038833980820191505090505090565b6040518060c0016040528060069060208202803883398082019150509050509056fe4f7468657220536d61727444696666696548656c6c6d616e20636f6e747261637420756e61737369676e65642e4220686173206e6f74206265656e207472616e736d6974746564206279206f7468657220536d61727444696666696548656c6c6d616e2ea265627a7a72315820e4de4918e2b7136c9ee3662ee0eb3463bfe96e96241eb49fea449c64490ef9a964736f6c6343000510003272657475726e206177616974206468496e73742e67656e657261746541422e63616c6c2867656e41615b225f61225d293b636f6e73742073656375726552616e646f6d203d207265717569726528227365637572652d72616e646f6d22293b206c65742072616e646f6d203d2073656375726552616e646f6d2833322c207b747970653a20224172726179227d293b206c65742067656e4161203d206177616974206468496e7374312e67656e6572617465412e63616c6c2872616e646f6d293b206177616974206468496e7374312e7472616e736d697441286468496e7374322e616464726573732c2067656e41615b225f41225d293b2072657475726e2067656e41613b282829203d3e207b636f6e73742073656375726552616e646f6d203d207265717569726528227365637572652d72616e646f6d22293b2072657475726e2073656375726552616e646f6d2833322c207b747970653a20224172726179227d293b7d292829",
  "source": "pragma solidity >=0.5.0 <0.7.1;\n\n\nimport \"./BigMod.sol\";\n\ncontract SmartDiffieHellman {\n\tusing BigMod for uint256;\n\n\tuint256 public P = 0xF3EC75CC015A7F458C242E37C292EEF96C40CFB670ED8CFF3BBA27EE3301205B;\n\tuint256 public G = 2;\n\n\tuint256 public B;\n\n\taddress other;\n\n\t// original strings for testing in migrations\n\tstring public jsInitTransmit = \"const secureRandom = require(\\\"secure-random\\\"); let random = secureRandom(32, {type: \\\"Array\\\"}); let genAa = await dhInst1.generateA.call(random); await dhInst1.transmitA(dhInst2.address, genAa[\\\"_A\\\"]); return genAa;\";\n\tstring public jsCalcSecret = \"return await dhInst.generateAB.call(genAa[\\\"_a\\\"]);\";\n\n\t// string for test 2\n\tstring public jsGetRandom = \"(() => {const secureRandom = require(\\\"secure-random\\\"); return secureRandom(32, {type: \\\"Array\\\"});})()\";\n\n\tfunction generateA(uint256[] memory _seed) public view returns (uint256 _a, uint256 _A) {\n\t\tassert(P != 0);\n\t\tassert(G != 0);\n\n\t\t_a = uint256(keccak256(abi.encodePacked(_seed)));\n\t\t_A = G.bigMod(_a, P);\n\t}\n\n\tfunction transmitA(SmartDiffieHellman _other, uint256 _A) public {\n\t\trequire(address(_other) != address(0), \"Other SmartDiffieHellman contract unassigned.\");\n\t\trequire(P == _other.P(), \"Prime is different.\");\n\t\trequire(G == _other.G(), \"Root is different.\");\n\n\t\t_other.setB(_A);\n\t}\n\n\n\tfunction generateAExtB(uint256 _a, uint256 _B) public view returns (uint256 _AB) {\n\t\t_AB = _B.bigMod(_a, P);\n\t}\n\n\tfunction generateAB(uint256 _a) public view returns (uint256 _AB) {\n\t\trequire(address(other) != address(0), \"Other SmartDiffieHellman contract unassigned.\");\n\t\trequire(B != 0, \"B has not been transmitted by other SmartDiffieHellman.\");\n\n\t\t_AB = B.bigMod(_a, P);\n\t}\n\n\tfunction setB(uint256 _B) public {\n\t\tother = msg.sender;\n\t\tB = _B;\n\t}\n\n\tfunction stop() public {\n\t\tselfdestruct(msg.sender);\n\t}\n}",
  "sourcePath": "C:/Users/alibe/Desktop/SmartDH/contracts/SmartDiffieHellman.sol",
  "compiler": {
    "name": "solc",
    "version": "0.5.16+commit.9c3226ce.Emscripten.clang"
  },
  "schemaVersion": "3.3.2",
  "updatedAt": "2020-12-10T07:39:26.218Z",
  "networkType": "ethereum",
  "devdoc": {
    "methods": {}
  },
  "userdoc": {
    "methods": {}
  }
}